:100000000C947C010C94A4010C94A4010C94A40104
:100010000C94A4010C94A4010C94A4010C94A401CC
:100020000C94A4010C94A4010C94DB060C948D0593
:100030000C94A4010C94A4010C94A4010C94A401AC
:100040000C94A4010C94A4010C94A4010C94A4019C
:100050000C94A4010C94A4010C94A4010C943A07F0
:100060000C94A4010C94A4010C94A4010C94A4017C
:100070000C94A4010C94A4010C94A4010C94A4016C
:100080000C94A4010C94A4010C94A4010C94A4015C
:100090000C94A4010C94A4010C94A4010C94A4014C
:1000A0000C94A4010C94A4010C94A401D001D301DC
:1000B000C601CA01F401F401F401D701DB01DF013B
:1000C000E501E901F401EF010000000200080E0063
:1000D00000030401000B000000000000000000000D
:1000E00000000000000004080201104080401020C1
:1000F00040804080080204018040201002011080EE
:100100001020404004040404040304050202020217
:1001100004030202020206060606060604040202A0
:100120000204000000002300260029002C002F00FC
:1001300000000000250028002B002E0031000000E8
:100140000000240027002A002D003000080B0002C8
:10015000020201000904000001020200000524005F
:1001600010010524010101042402060524060001F2
:100170000705810310004009040100020A00000085
:10018000070502024000000705830240000000C18D
:100190008081C1120100020200004041233680002C
:1001A000010102000112010002000000404123365B
:1001B0008000010102000118034100720064007513
:1001C0000069006E006F0020004C004C00430022CC
:1001D00003410072006400750069006E006F00202A
:1001E000004C0065006F006E006100720064006FDB
:1001F000000403090400000000000000002A2B286E
:1002000000000000000000000000000000000000EE
:1002100000000000002C9EB4A0A1A2A434A6A7A5B3
:10022000AE362D3738271E1F20212223242526B342
:1002300033B62EB7B89F8485868788898A8B8C8D44
:100240008E8F909192939495969798999A9B9C9D56
:100250002F3130A3AD350405060708090A0B0C0D34
:100260000E0F101112131415161718191A1B1C1D36
:10027000AFB1B0B50009040200010300000009217C
:10028000010100012265000705840340000105010A
:100290000902A1010901A10085010509190129032C
:1002A00015002501950375018102950175058103EE
:1002B00005010930093109381581257F7508950335
:1002C0008106C0C005010906A1018502050719E0E4
:1002D00029E715002501750195088102950175082A
:1002E0008103950675081500256505071900296520
:1002F0008100C0004F03590911241FBECFEFDAE07F
:10030000DEBFCDBF11E0A0E0B1E0ECEDF2E102C054
:1003100005900D92AE32B107D9F711E0AEE2B1E02F
:1003200001C01D92AF39B107E1F712E0C8EFD2E08A
:1003300004C02297FE010E946809C43FD107C9F793
:100340000E9466030C946C090C94000060E08DE040
:100350000E94F50160E875E28EE291E00C944E0394
:100360008DE00E942E02892B31F46AE071E08EE26A
:1003700091E00C94D003089590E0FC013197EE30A9
:10038000F10590F5EA5AFF4F0C94660980918000C0
:100390008F7703C0809180008F7D809380000895C7
:1003A00084B58F7702C084B58F7D84BD0895809118
:1003B00090008F7707C0809190008F7D03C080915F
:1003C0009000877F8093900008958091C0008F7780
:1003D00003C08091C0008F7D8093C00008958091FC
:1003E000C200877F8093C2000895CF93DF9390E08F
:1003F000FC01EA51FF4F2491FC01EC5FFE4F849118
:10040000882349F190E0880F991FFC01E25CFE4FC0
:10041000A591B491805D9E4FFC01C591D4919FB789
:10042000611108C0F8948C91209582238C93888167
:1004300082230AC0623051F4F8948C91322F3095A7
:1004400083238C938881822B888304C0F8948C91B9
:10045000822B8C939FBFDF91CF910895CF93DF9331
:10046000282F30E0F901E853FF4F8491F901EA5158
:10047000FF4FD491F901EC5FFE4FC491CC2391F072
:1004800081110E94BC01EC2FF0E0EE0FFF1FEE5D2A
:10049000FE4FA591B4912C912D2381E090E021F4A1
:1004A00080E002C080E090E0DF91CF9108958091DC
:1004B0007C0190917D0120917E0130917F01821B12
:1004C000930B8F739927089520917C0130917D01C2
:1004D00080917E0190917F012817390749F0E091C2
:1004E0007E01F0917F01E45CFE4F808190E00895F1
:1004F0008FEF9FEF089520917C0130917D018091D5
:100500007E0190917F0128173907A9F0E0917E01C3
:10051000F0917F01E45CFE4F808120917E0130915B
:100520007F012F5F3F4F2F73332730937F0120933D
:100530007E0190E008958FEF9FEF0895CF93DF93B2
:10054000C0917C01D0917D012196CF73DD278091F0
:100550007E0190917F01C817D90799F082E00E942F
:100560004F048F3F2FEF920761F0E0917C01F091F3
:100570007D01E45CFE4F8083D0937D01C0937C01BC
:10058000DFCFDF91CF91089583E00C94B3060F93F2
:100590001F93CF93DF931F92CDB7DEB78C01698392
:1005A00080910701882359F041E050E0BE016F5F60
:1005B0007F4F83E00E948004181619063CF081E00A
:1005C00090E0F8019383828380E090E00F90DF91C8
:1005D000CF911F910F910895FC0120812E5F208300
:1005E00042E450E06CE471E080E80C941B05FC01EF
:1005F00081819081913A59F4813209F04BC047E0F2
:1006000050E060E071E080E00E941B0545C091323F
:1006100009F040C0803239F467E070E080E091E09A
:100620000E945F0539C0823209F034C08281809314
:1006300007018091000190910101A0910201B09108
:100640000301803B9440A105B10531F5809107017C
:1006500080FD12C087E797E7909301088093000818
:100660002BE088E190E00FB6F894A89580936000A5
:100670000FBE2093600010C088E10FB6F8948093FD
:100680006000109260000FBEA895109201081092B1
:10069000000802C080E0089581E008950895109256
:1006A00031011092300188EE93E0A0E0B0E0809339
:1006B000320190933301A0933401B093350181E16D
:1006C00091E090932F0180932E0108950E94CD0711
:1006D00080E891E00E94BD060E94A601C0E0D0E043
:1006E0000E94B0012097E1F30E940000F9CFCF9261
:1006F000DF92EF92FF920F931F93CF93DF936C01E2
:100700007A01EB01E60EF71E00E010E0CE15DF05E2
:1007100061F06991D601ED91FC910190F081E02D9D
:10072000C6010995080F191FF1CFC801DF91CF91BC
:100730001F910F91FF90EF90DF90CF90089561157A
:10074000710581F0DB010D900020E9F7AD0141500A
:100750005109461B570BDC01ED91FC910280F3819E
:10076000E02D099480E090E00895DC01ED91FC918A
:100770000190F081E02D09940F931F93CF93DF93A5
:10078000EC016DE00E94B5038C016AE0CE010E948D
:10079000B503800F911FDF91CF911F910F910895A5
:1007A0000F931F93CF93DF93EC010E949F038C0163
:1007B000CE010E94BC03800F911FDF91CF911F914A
:1007C0000F910895615030F02091F100FC012083D9
:1007D0000196F8CF289884E68093870108952FB773
:1007E000FC012083F89467706093E9000895CF932B
:1007F000DF931F92CDB7DEB7682FCE0101960E941E
:10080000EF038091F20099819FBF0F90DF91CF910C
:100810000895FF920F931F93CF93DF9300D0CDB72E
:10082000DEB7F62E8A0190918601992311F057FFC9
:1008300003C08FEF9FEF2BC0682FCE0101967A8304
:100840000E94EF038091F20090E0A8017A81801766
:1008500091070CF4AC01EF2DF72FF40E84E6FE1691
:1008600039F02898809387019091F1009193F7CF08
:100870004115510521F08091F200882321F08981F2
:100880008FBFCA0104C08BE68093E800F8CF0F90B9
:100890000F90DF91CF911F910F91FF900895CF930B
:1008A000DF931F92CDB7DEB741E050E0BE016F5F2E
:1008B0007F4F0E940904019719F4898190E002C0DA
:1008C0008FEF9FEF0F90DF91CF910895CF93DF933C
:1008D0001F92CDB7DEB7682FCE0101960E94EF03BD
:1008E0009091E800892F807295FF04C09091F200EA
:1008F00080E4891B99819FBF0F90DF91CF9108956C
:100900004F925F926F927F928F929F92AF92BF921F
:10091000CF92DF92EF92FF920F931F93CF93DF93CB
:100920001F92CDB7DEB7582E7B01A42E952E809155
:100930008601882369F0042F152F8AEFB82E852DA4
:100940008072782E9AE3892E852D8074682E11C0CE
:100950008FEF9FEF53C0852D0E946604482E8111B2
:100960000CC0BA94A9F361E070E080E090E00E94CE
:10097000A7070115110579F737C0282F30E00217B6
:1009800013070CF4402EC42CD12C0C191D09652D15
:10099000CE0101960E94EF03772039F04A948FEF41
:1009A0004816B1F01092F100F9CFF701842D57FEEF
:1009B00007C0815058F094919093F1003196F9CF8F
:1009C000815020F091919093F100FACFEC0CFD1C36
:1009D0008091E80085FF0FC00115110511F4611029
:1009E0000AC089818FBFC5CF5D9884E68093880156
:1009F0008A2D992D03C08092E800F3CF0F90DF91EC
:100A0000CF911F910F91FF90EF90DF90CF90BF900B
:100A1000AF909F908F907F906F905F904F900895D0
:100A20001092E90010928501109284019093830145
:100A3000809382010895CF93DF93FB0120E030E0A3
:100A4000DEEF24173507A1F187FF02C0C49101C072
:100A5000C081A0918401B091850160918201709163
:100A60008301A617B707B4F49091E8009570E1F3FD
:100A70009091E80092FD1EC0C093F1006091840146
:100A8000709185016F5F7F4F6F737727672B11F42C
:100A9000D093E80060918401709185016F5F7F4F72
:100AA00070938501609384012F5F3F4F3196C9CFCA
:100AB000C90102C08FEF9FEFDF91CF9108951F937F
:100AC000CF93DF931F92CDB7DEB7162F2091E800AA
:100AD00022FFFCCF612F79830E94E2038BEF80938A
:100AE000E800812F7981972F0F90DF91CF911F918F
:100AF0000895CF93DF931F92CDB7DEB71982CE0151
:100B000001960E94EC02CE0101960E944108898163
:100B100090E00F90DF91CF9108951F920F920FB642
:100B20000F921124EF92FF920F931F932F933F93F5
:100B30004F935F936F937F938F939F93AF93BF93E5
:100B4000EF93FF93CF93DF93CDB7DEB76297DEBF0E
:100B5000CDBF1092E9008091E80083FFE7C068E014
:100B6000CE010A960E94E20382EF8093E8009A8504
:100B700097FF05C08091E80080FFFCCF03C08EEF97
:100B80008093E800892F807609F0B5C08B858111AC
:100B900005C01092F1001092F100C1C0282F2D7FE6
:100BA000213009F4BCC0853049F48091E80080FF11
:100BB000FCCF8C8580688093E300B1C0863009F05B
:100BC00072C02D85E888F988223071F580E090E0C8
:100BD0002A8B0E9410050E94790599E08E010F5F13
:100BE0001F4FF801392F11923A95E9F799832A8915
:100BF0002A8391E09E8390E898879AEF99872091C5
:100C0000840130918501275F3F4F3C832B838D8387
:100C1000C7010E94100549E050E0B80180E00E9441
:100C20001B050E9479057BC0C7012A8B0E94100515
:100C30002A89223241F482E290E00E944C08892BFA
:100C400009F06DC070C0213069F4888999890897CE
:100C500011F42093810180918101882389F063E957
:100C600071E016C0233009F05EC08C85882359F0EE
:100C7000823061F0813009F056C067EB71E008C046
:100C800065EA71E005C061EF71E002C06FEC71E0F0
:100C90006115710509F447C0FB01449150E080E8FB
:100CA0000E941B053CC0873009F43DC0883021F408
:100CB00081E08093F10033C0893089F5937099F514
:100CC000EFE8F1E081E021E096E38093E9002093F2
:100CD000EB0034913093EC009093ED008F5F3196F0
:100CE000853099F78EE78093EA001092EA008C85B0
:100CF0008093860114C0888999890E9410058E8589
:100D0000811105C0CE010A960E94F70206C082300A
:100D100051F4CE010A960E947408882321F08EEFC8
:100D20008093E80003C081E28093EB0062960FB6E7
:100D3000F894DEBF0FBECDBFDF91CF91FF91EF9151
:100D4000BF91AF919F918F917F916F915F914F91E3
:100D50003F912F911F910F91FF90EF900F900FBE39
:100D60000F901F9018958093E9008091F2008823DE
:100D700019F08AE38093E80008951092860181E0DB
:100D80008093D70080EA8093D80082E189BD09B4BE
:100D900000FEFDCF61E070E080E090E00E94A707D8
:100DA00080E98093D8008CE08093E2001092E0000C
:100DB000559A209A08951F920F920FB60F92112400
:100DC0002F933F934F935F936F937F938F939F9353
:100DD000AF93BF93EF93FF938091E1001092E100F6
:100DE00083FF0FC01092E90091E09093EB00109206
:100DF000EC0092E39093ED001092860198E09093BE
:100E0000F00082FF26C083E00E94B30682E00E94C9
:100E1000F703882321F08EE291E00E949E028091E8
:100E20008801882339F0809188018150809388015E
:100E3000882369F080918701882359F08091870188
:100E4000815080938701811104C0289A02C05D9A65
:100E5000F1CFFF91EF91BF91AF919F918F917F91D2
:100E60006F915F914F913F912F910F900FBE0F9017
:100E70001F9018951F920F920FB60F9211242F9367
:100E80003F938F939F93AF93BF9380918A019091EB
:100E90008B01A0918C01B0918D013091890123E0EB
:100EA000230F2D3720F40196A11DB11D05C026E8A2
:100EB000230F0296A11DB11D2093890180938A0101
:100EC00090938B01A0938C01B0938D0180918E0142
:100ED00090918F01A0919001B09191010196A11D77
:100EE000B11D80938E0190938F01A0939001B093D8
:100EF0009101BF91AF919F918F913F912F910F9051
:100F00000FBE0F901F9018953FB7F89480918E01F7
:100F100090918F01A0919001B091910126B5A89B6D
:100F200005C02F3F19F00196A11DB11D3FBF6627D7
:100F3000782F892F9A2F620F711D811D911D42E01C
:100F4000660F771F881F991F4A95D1F70895CF9292
:100F5000DF92EF92FF92CF93DF936B017C010E94AF
:100F60008407EB01C114D104E104F10479F00E947B
:100F700084076C1B7D0B683E7340A0F381E0C81AA8
:100F8000D108E108F108C851DC4FECCFDF91CF91D7
:100F9000FF90EF90DF90CF900895789484B58260B1
:100FA00084BD84B5816084BD85B5826085BD85B50D
:100FB000816085BDEEE6F0E0808181608083E1E8BC
:100FC000F0E01082808182608083808181608083F4
:100FD000E0E8F0E0808181608083E1E9F0E08081F9
:100FE00082608083808181608083E0E9F0E080819D
:100FF00081608083E1ECF0E0808184608083808187
:1010000082608083808181608083E3ECF0E0808176
:1010100081608083E0ECF0E0808182608083E2EC9C
:10102000F0E0808181608083EAE7F0E08081846085
:1010300080838081826080838081816080838081E1
:10104000806880830895FF920F931F93CF93DF935F
:10105000EC01F62EE881F9810480F581E02D0995F7
:101060008C01E881F9810680F781E02D6F2DCE019A
:101070000995C8019927DF91CF911F910F91FF909A
:101080000895FC0120812F5F208349E150E065E74E
:1010900072E080E80C941B0545E650E06EE872E0D3
:1010A00080E80C941B05EF92FF920F931F93CF9350
:1010B000DF931F92CDB7DEB789838B017A0141E0C0
:1010C00050E0BE016F5F7F4F84E00E948004A70163
:1010D000B80184E40E9480040F90DF91CF911F91AA
:1010E0000F91FF90EF900895FC0191818081813AEA
:1010F00031F481E0913091F0933089F411C0813264
:1011000071F49B3021F482818093090105C09A30EB
:1011100031F482818093080181E00895089580E090
:10112000089548E050E082E00C945308CF93DF9399
:10113000DC01683818F0E8E7E60F25C0E62FF0E09C
:1011400067FF11C0E058F10981E090E001C0880F0D
:10115000EA95EAF714969C911497982B14969C9311
:101160001497E0E010C0EB50FE4FE491EE2309F439
:1011700040C0E7FF08C014968C91149782601496C3
:101180008C931497EF7716968C9116978E1741F1E2
:1011900017968C9117978E1719F118968C911897AE
:1011A0008E17F1F019968C9119978E17C9F01A962F
:1011B0008C911A978E17A1F01B968C911B978E1706
:1011C00079F080E090E0ED01C80FD91F2E81211148
:1011D00002C0EE8305C0019686309105A1F709C0D3
:1011E000BD016C5F7F4FCD010E94910881E090E0CE
:1011F00008C081E090E013969C938E93129780E054
:1012000090E0DF91CF910895683818F0E8E7E60F95
:1012100025C0E62FF0E067FF12C0E058F10921E099
:1012200030E001C0220FEA95EAF72095DC01149620
:101230003C911497322314963C93E0E00FC0EB509E
:10124000FE4FE491EE2329F1E7FF08C0DC0114967C
:101250002C9114972D7F14962C93EF7720E030E09B
:10126000EE2351F0DC01A20FB31F16964C91169796
:101270004E1302C016961C922F5F3F4F2630310549
:1012800079F7BC016C5F7F4F0E94910881E090E08C
:10129000089580E090E00895FC0116821782108680
:1012A0001186128613861482BC016C5F7F4F0C94EA
:1012B000910810929E01109295011092940183E280
:1012C00091E090939301809392010895EE0FFF1F98
:0C12D0000590F491E02D0994F894FFCFF4
:1012DC0000E100000000000001014F4B0000000085
:1012EC0000C702770357027B026402C4029E02000D
:0E12FC0000000023087703960804094C09003F
:00000001FF
