:100000000C942C010C9454010C9454010C94540144
:100010000C9454010C9454010C9454010C9454010C
:100020000C9454010C9454010C94B9060C946B0577
:100030000C9454010C9454010C9454010C945401EC
:100040000C9454010C9454010C9454010C945401DC
:100050000C9454010C9454010C9454010C9482019E
:100060000C9454010C9454010C9454010C945401BC
:100070000C9454010C9454010C9454010C945401AC
:100080000C9454010C9454010C9454010C9454019C
:100090000C9454010C9454010C9454010C9454018C
:1000A0000C9454010C9454010C9454010000000071
:1000B000000000002A2B28000000000000000000C3
:1000C0000000000000000000000000002C9EB4A012
:1000D000A1A2A434A6A7A5AE362D3738271E1F200F
:1000E000212223242526B333B62EB7B89F848586D4
:1000F0008788898A8B8C8D8E8F9091929394959618
:100100009798999A9B9C9D2F3130A3AD3504050695
:100110000708090A0B0C0D0E0F10111213141516F7
:100120001718191A1B1C1DAFB1B0B5000904020045
:1001300001030000000921010100012265000705FB
:10014000840340000105010902A1010901A1008504
:100150000105091901290315002501950375018180
:10016000029501750581030501093009310938152A
:1001700081257F750895038106C0C005010906A188
:10018000018502050719E029E7150025017501958C
:1001900008810295017508810395067508150025EB
:1001A000650507190029658100C000C18081C11261
:1001B00001000202000040412336800001010200DC
:1001C00001120100020000004041233680000101BD
:1001D0000200011803410072006400750069006E9E
:1001E000006F0020004C004C0043002203410072CD
:1001F000006400750069006E006F0020004C00650F
:10020000006F006E006100720064006F000403095B
:1002100004080B00020202010009040000010202AE
:100220000000052400100105240101010424020638
:1002300005240600010705810310004009040100A0
:10024000020A0000000705020240000007058302C1
:1002500040000000B3030F0811241FBECFEFDAE007
:10026000DEBFCDBF11E0A0E0B1E0ECEAF0E102C0FA
:1002700005900D92AA32B107D9F711E0AAE2B1E0D8
:1002800001C01D92AD39B107E1F712E0C8E5D2E037
:1002900004C02297FE010E945008C435D107C9F757
:1002A0000E946B020C9454080C94000085E391E0CA
:1002B0000C94EA0260912A0170912B01673071055C
:1002C000E4F46F5F7F4F70932B0160932A01605DB0
:1002D00085E391E00E94F00262E370E080E090E04C
:1002E0000E94EF0185E391E00E94A60368EE73E0AF
:1002F00080E090E00E94EF01DDCF10922B01109280
:100300002A0108951F920F920FB60F9211242F9376
:100310003F938F939F93AF93BF9380912D019091C3
:100320002E01A0912F01B091300130912C0123E0DA
:10033000230F2D3720F40196A11DB11D05C026E81D
:10034000230F0296A11DB11D20932C0180932D0136
:1003500090932E01A0932F01B09330018091310131
:1003600090913201A0913301B09134010196A11D09
:10037000B11D8093310190933201A0933301B0936A
:100380003401BF91AF919F918F913F912F910F9029
:100390000FBE0F901F9018953FB7F89480913101D0
:1003A00090913201A0913301B091340126B5A89B00
:1003B00005C02F3F19F00196A11DB11D3FBF662753
:1003C000782F892F9A2F620F711D811D911D42E098
:1003D000660F771F881F991F4A95D1F70895CF920E
:1003E000DF92EF92FF92CF93DF936B017C010E942B
:1003F000CC01EB01C114D104E104F10479F00E94B5
:10040000CC016C1B7D0B683E7340A0F381E0C81AE1
:10041000D108E108F108C851DC4FECCFDF91CF9152
:10042000FF90EF90DF90CF900895789484B582602C
:1004300084BD84B5816084BD85B5826085BD85B588
:10044000816085BDEEE6F0E0808181608083E1E837
:10045000F0E010828081826080838081816080836F
:10046000E0E8F0E0808181608083E1E9F0E0808174
:1004700082608083808181608083E0E9F0E0808118
:1004800081608083E1ECF0E0808184608083808102
:1004900082608083808181608083E3ECF0E08081F2
:1004A00081608083E0ECF0E0808182608083E2EC18
:1004B000F0E0808181608083EAE7F0E08081846001
:1004C000808380818260808380818160808380815D
:1004D0008068808308950E94150282E491E00E9462
:1004E0009B060E945601C0E0D0E00E945A0120976E
:1004F000E1F30E940000F9CFFF920F931F93CF9377
:10050000DF93EC01F62EE881F9810480F581E02D7E
:1005100009958C01E881F9810680F781E02D6F2D26
:10052000CE010995C8019927DF91CF911F910F91B5
:10053000FF900895FC0120812F5F208349E150E066
:100540006CE271E080E80C94F90445E650E065E463
:1005500071E080E80C94F904EF92FF920F931F93DF
:10056000CF93DF931F92CDB7DEB789838B017A01DA
:1005700041E050E0BE016F5F7F4F84E00E945E0467
:10058000A701B80184E40E945E040F90DF91CF912F
:100590001F910F91FF90EF900895FC019181808150
:1005A000813A31F481E0913091F0933089F411C0B7
:1005B000813271F49B3021F482818093010105C066
:1005C0009A3031F482818093000181E0089508958A
:1005D00080E00895089548E050E082E00C94AC0279
:1005E000CF93DF93DC01683818F0E8E7E60F25C009
:1005F000E62FF0E067FF11C0E058F10981E090E0DC
:1006000001C0880FEA95EAF714969C911497982BED
:1006100014969C931497E0E010C0E455FF4FE491CA
:10062000EE2309F440C0E7FF08C014968C9114979C
:10063000826014968C931497EF7716968C91169788
:100640008E1741F117968C9117978E1719F11896FE
:100650008C9118978E17F1F019968C9119978E1727
:10066000C9F01A968C911A978E17A1F01B968C914F
:100670001B978E1779F080E090E0ED01C80FD91F2D
:100680002E81211102C0EE8305C0019686309105AE
:10069000A1F709C0BD016C5F7F4FCD010E94EB0245
:1006A00081E090E008C081E090E013969C938E93E7
:1006B000129780E090E0DF91CF910895683818F0AC
:1006C000E8E7E60F25C0E62FF0E067FF12C0E0582C
:1006D000F10921E030E001C0220FEA95EAF7209508
:1006E000DC0114963C911497322314963C93E0E07D
:1006F0000FC0E455FF4FE491EE2329F1E7FF08C056
:10070000DC0114962C9114972D7F14962C93EF777F
:1007100020E030E0EE2351F0DC01A20FB31F16966B
:100720004C9116974E1302C016961C922F5F3F4FA6
:100730002630310579F7BC016C5F7F4F0E94EB02D8
:1007400081E090E0089580E090E00895FC01168239
:10075000178210861186128613861482BC016C5F84
:100760007F4F0C94EB0210924101109238011092CD
:1007700037018EE091E09093360180933501089522
:10078000615030F02091F100FC0120830196F8CFF8
:10079000289884E68093490108952FB7FC012083AF
:1007A000F89467706093E9000895CF93DF931F92E8
:1007B000CDB7DEB7682FCE0101960E94CD038091A0
:1007C000F20099819FBF0F90DF91CF910895FF9222
:1007D0000F931F93CF93DF9300D0CDB7DEB7F62EE4
:1007E0008A0190914801992311F057FF03C08FEFC0
:1007F0009FEF2BC0682FCE0101967A830E94CD0314
:100800008091F20090E0A8017A81801791070CF4A2
:10081000AC01EF2DF72FF40E84E6FE1639F0289880
:10082000809349019091F1009193F7CF41155105C3
:1008300021F08091F200882321F089818FBFCA01C5
:1008400004C08BE68093E800F8CF0F900F90DF9103
:10085000CF911F910F91FF900895CF93DF931F9237
:10086000CDB7DEB741E050E0BE016F5F7F4F0E9421
:10087000E703019719F4898190E002C08FEF9FEFA1
:100880000F90DF91CF910895CF93DF931F92CDB753
:10089000DEB7682FCE0101960E94CD039091E8004B
:1008A000892F807295FF04C09091F20080E4891B2B
:1008B00099819FBF0F90DF91CF9108954F925F92E2
:1008C0006F927F928F929F92AF92BF92CF92DF9260
:1008D000EF92FF920F931F93CF93DF931F92CDB7A9
:1008E000DEB7582E7B01A42E952E809148018823D7
:1008F00069F0042F152F8AEFB82E852D8072782E7F
:100900009AE3892E852D8074682E11C08FEF9FEF9A
:1009100053C0852D0E944404482E81110CC0BA9406
:10092000A9F361E070E080E090E00E94EF01011522
:10093000110579F737C0282F30E0021713070CF4A0
:10094000402EC42CD12C0C191D09652DCE01019609
:100950000E94CD03772039F04A948FEF4816B1F00A
:100960001092F100F9CFF701842D57FE07C0815096
:1009700058F094919093F1003196F9CF815020F086
:1009800091919093F100FACFEC0CFD1C8091E8005E
:1009900085FF0FC00115110511F461100AC089818E
:1009A0008FBFC5CF5D9884E680934A018A2D992D2B
:1009B00003C08092E800F3CF0F90DF91CF911F9199
:1009C0000F91FF90EF90DF90CF90BF90AF909F90EE
:1009D0008F907F906F905F904F9008951092E900F4
:1009E0001092470110924601909345018093440173
:1009F0000895CF93DF93FB0120E030E0DEEF241772
:100A00003507A1F187FF02C0C49101C0C081A09148
:100A10004601B09147016091440170914501A617CC
:100A2000B707B4F49091E8009570E1F39091E80075
:100A300092FD1EC0C093F100609146017091470184
:100A40006F5F7F4F6F737727672B11F4D093E800A8
:100A500060914601709147016F5F7F4F709347012E
:100A6000609346012F5F3F4F3196C9CFC90102C045
:100A70008FEF9FEFDF91CF9108951F93CF93DF9377
:100A80001F92CDB7DEB7162F2091E80022FFFCCFD2
:100A9000612F79830E94C0038BEF8093E800812F40
:100AA0007981972F0F90DF91CF911F910895CF9368
:100AB000DF931F92CDB7DEB71982CE0101960E9457
:100AC000AD07CE0101960E949A02898190E00F90B5
:100AD000DF91CF9108951F920F920FB60F921124BC
:100AE000EF92FF920F931F932F933F934F935F9338
:100AF0006F937F938F939F93AF93BF93EF93FF93E6
:100B0000CF93DF93CDB7DEB76297DEBFCDBF109234
:100B1000E9008091E80083FFE7C068E0CE010A9613
:100B20000E94C00382EF8093E8009A8597FF05C07A
:100B30008091E80080FFFCCF03C08EEF8093E80037
:100B4000892F807609F0B5C08B85811105C0109280
:100B5000F1001092F100C1C0282F2D7F213009F43F
:100B6000BCC0853049F48091E80080FFFCCF8C85C3
:100B700080688093E300B1C0863009F072C02D8593
:100B8000E888F988223071F580E090E02A8B0E9495
:100B9000EE040E94570599E08E010F5F1F4FF80188
:100BA000392F11923A95E9F799832A892A8391E09E
:100BB0009E8390E898879AEF99872091460130911B
:100BC0004701275F3F4F3C832B838D83C7010E94E2
:100BD000EE0449E050E0B80180E00E94F9040E9470
:100BE00057057BC0C7012A8B0E94EE042A89223256
:100BF00041F482E290E00E94A502892B09F06DC0C9
:100C000070C0213069F488899989089711F420937C
:100C1000430180914301882389F06FEA71E016C097
:100C2000233009F05EC08C85882359F0823061F052
:100C3000813009F056C063ED71E008C061EC71E0ED
:100C400005C06DE072E002C06BEE71E061157105E8
:100C500009F447C0FB01449150E080E80E94F90488
:100C60003CC0873009F43DC0883021F481E0809396
:100C7000F10033C0893089F5937099F5EBEAF1E022
:100C800081E021E096E38093E9002093EB0034912A
:100C90003093EC009093ED008F5F3196853099F79B
:100CA0008EE78093EA001092EA008C8580934801D9
:100CB00014C0888999890E94EE048E85811105C02F
:100CC000CE010A960E94B80706C0823051F4CE01C8
:100CD0000A960E94CD02882321F08EEF8093E800CF
:100CE00003C081E28093EB0062960FB6F894DEBFFA
:100CF0000FBECDBFDF91CF91FF91EF91BF91AF912B
:100D00009F918F917F916F915F914F913F912F9123
:100D10001F910F91FF90EF900F900FBE0F901F90BB
:100D200018958093E9008091F200882319F08AE3F6
:100D30008093E80008951092480181E08093D700E5
:100D400080EA8093D80082E189BD09B400FEFDCF1E
:100D500061E070E080E090E00E94EF0180E9809324
:100D6000D8008CE08093E2001092E000559A209A1F
:100D700008951F920F920FB60F9211242F933F9355
:100D80004F935F936F937F938F939F93AF93BF9393
:100D9000EF93FF938091E1001092E10083FF0FC079
:100DA0001092E90091E09093EB001092EC0092E336
:100DB0009093ED001092480198E09093F00082FF2C
:100DC00026C083E00E94910682E00E94D50388231A
:100DD00021F08BE491E00E945F0780914A01882313
:100DE00039F080914A01815080934A01882369F04B
:100DF00080914901882359F0809149018150809365
:100E00004901811104C0289A02C05D9AF1CFFF9177
:100E1000EF91BF91AF919F918F917F916F915F9172
:100E20004F913F912F910F900FBE0F901F901895EB
:100E30008091990190919A0120919B0130919C01A0
:100E4000821B930B8F7399270895209199013091FC
:100E50009A0180919B0190919C012817390749F0D4
:100E6000E0919B01F0919C01E75AFE4F808190E058
:100E700008958FEF9FEF08952091990130919A0185
:100E800080919B0190919C0128173907A9F0E0916E
:100E90009B01F0919C01E75AFE4F808120919B01BC
:100EA00030919C012F5F3F4F2F73332730939C016C
:100EB00020939B0190E008958FEF9FEF0895CF93CB
:100EC000DF93C0919901D0919A012196CF73DD27CC
:100ED00080919B0190919C01C817D90799F082E0FD
:100EE0000E942D048F3F2FEF920761F0E09199014E
:100EF000F0919A01E75AFE4F8083D0939A01C093F4
:100F00009901DFCFDF91CF91089583E00C94910692
:100F10000F931F93CF93DF931F92CDB7DEB78C0152
:100F2000698380910901882359F041E050E0BE01B6
:100F30006F5F7F4F83E00E945E04181619063CF035
:100F400081E090E0F8019383828380E090E00F904D
:100F5000DF91CF911F910F910895FC0120812E5FA9
:100F6000208342E450E061E172E080E80C94F904EF
:100F7000FC0181819081913A59F4813209F04BC092
:100F800047E050E062E071E080E00E94F90445C073
:100F9000913209F040C0803239F467E070E082E0BD
:100FA00091E00E943D0539C0823209F034C082814F
:100FB000809309018091020190910301A0910401A5
:100FC000B0910501803B9440A105B10531F58091B8
:100FD000090180FD12C087E797E79093010880938D
:100FE00000082BE088E190E00FB6F894A895809374
:100FF00060000FBE2093600010C088E10FB6F89427
:1010000080936000109260000FBEA89510920108B6
:101010001092000802C080E0089581E008951092C7
:101020004E0110924D0188EE93E0A0E0B0E0809375
:101030004F0190935001A0935101B09352018CE164
:1010400091E090934C0180934B010895CF92DF92F1
:10105000EF92FF920F931F93CF93DF936C017A016E
:10106000EB01E60EF71E00E010E0CE15DF0561F0A3
:101070006991D601ED91FC910190F081E02DC601BE
:101080000995080F191FF1CFC801DF91CF911F916A
:101090000F91FF90EF90DF90CF900895EE0FFF1F1C
:0C10A0000590F491E02D0994F894FFCF26
:1010AC00010100E1000000000000000000007C02D3
:1010BC002608F0025E03A60300000000880726083D
:0A10CC0018073C07250785075F079A
:00000001FF
